{
  "_format": "hh-sol-artifact-1",
  "contractName": "IPRightsRegistry",
  "sourceName": "contracts/IPRightsRegistry.sol",
  "abi": [
    {
      "inputs": [],
      "stateMutability": "nonpayable",
      "type": "constructor"
    },
    {
      "inputs": [],
      "name": "AssetNotActive",
      "type": "error"
    },
    {
      "inputs": [],
      "name": "AssetNotFound",
      "type": "error"
    },
    {
      "inputs": [],
      "name": "InvalidExpiration",
      "type": "error"
    },
    {
      "inputs": [],
      "name": "InvalidLicensee",
      "type": "error"
    },
    {
      "inputs": [],
      "name": "InvalidOwner",
      "type": "error"
    },
    {
      "inputs": [],
      "name": "NotAssetOwner",
      "type": "error"
    },
    {
      "inputs": [
        {
          "internalType": "address",
          "name": "owner",
          "type": "address"
        }
      ],
      "name": "OwnableInvalidOwner",
      "type": "error"
    },
    {
      "inputs": [
        {
          "internalType": "address",
          "name": "account",
          "type": "address"
        }
      ],
      "name": "OwnableUnauthorizedAccount",
      "type": "error"
    },
    {
      "anonymous": false,
      "inputs": [
        {
          "indexed": true,
          "internalType": "uint256",
          "name": "assetId",
          "type": "uint256"
        },
        {
          "indexed": true,
          "internalType": "address",
          "name": "owner",
          "type": "address"
        },
        {
          "indexed": true,
          "internalType": "address",
          "name": "grantee",
          "type": "address"
        }
      ],
      "name": "AccessGranted",
      "type": "event"
    },
    {
      "anonymous": false,
      "inputs": [
        {
          "indexed": true,
          "internalType": "uint256",
          "name": "assetId",
          "type": "uint256"
        },
        {
          "indexed": true,
          "internalType": "address",
          "name": "requester",
          "type": "address"
        },
        {
          "indexed": false,
          "internalType": "string",
          "name": "purpose",
          "type": "string"
        }
      ],
      "name": "AccessRequested",
      "type": "event"
    },
    {
      "anonymous": false,
      "inputs": [
        {
          "indexed": true,
          "internalType": "uint256",
          "name": "assetId",
          "type": "uint256"
        },
        {
          "indexed": true,
          "internalType": "address",
          "name": "owner",
          "type": "address"
        },
        {
          "indexed": false,
          "internalType": "string",
          "name": "ipfsHash",
          "type": "string"
        },
        {
          "indexed": false,
          "internalType": "bytes32",
          "name": "termsHash",
          "type": "bytes32"
        }
      ],
      "name": "AssetRegistered",
      "type": "event"
    },
    {
      "anonymous": false,
      "inputs": [
        {
          "indexed": true,
          "internalType": "uint256",
          "name": "assetId",
          "type": "uint256"
        },
        {
          "indexed": true,
          "internalType": "address",
          "name": "licensor",
          "type": "address"
        },
        {
          "indexed": true,
          "internalType": "address",
          "name": "licensee",
          "type": "address"
        },
        {
          "indexed": false,
          "internalType": "bytes32",
          "name": "termsHash",
          "type": "bytes32"
        }
      ],
      "name": "LicenseGranted",
      "type": "event"
    },
    {
      "anonymous": false,
      "inputs": [
        {
          "indexed": true,
          "internalType": "uint256",
          "name": "assetId",
          "type": "uint256"
        },
        {
          "indexed": true,
          "internalType": "address",
          "name": "licensor",
          "type": "address"
        },
        {
          "indexed": true,
          "internalType": "address",
          "name": "licensee",
          "type": "address"
        }
      ],
      "name": "LicenseRevoked",
      "type": "event"
    },
    {
      "anonymous": false,
      "inputs": [
        {
          "indexed": true,
          "internalType": "address",
          "name": "previousOwner",
          "type": "address"
        },
        {
          "indexed": true,
          "internalType": "address",
          "name": "newOwner",
          "type": "address"
        }
      ],
      "name": "OwnershipTransferred",
      "type": "event"
    },
    {
      "inputs": [
        {
          "internalType": "uint256",
          "name": "",
          "type": "uint256"
        },
        {
          "internalType": "uint256",
          "name": "",
          "type": "uint256"
        }
      ],
      "name": "assetLicenses",
      "outputs": [
        {
          "internalType": "uint256",
          "name": "assetId",
          "type": "uint256"
        },
        {
          "internalType": "address",
          "name": "licensor",
          "type": "address"
        },
        {
          "internalType": "address",
          "name": "licensee",
          "type": "address"
        },
        {
          "internalType": "bytes32",
          "name": "termsHash",
          "type": "bytes32"
        },
        {
          "internalType": "string",
          "name": "licenseIPFS",
          "type": "string"
        },
        {
          "internalType": "uint256",
          "name": "grantedAt",
          "type": "uint256"
        },
        {
          "internalType": "uint256",
          "name": "expiresAt",
          "type": "uint256"
        },
        {
          "internalType": "bool",
          "name": "revoked",
          "type": "bool"
        }
      ],
      "stateMutability": "view",
      "type": "function"
    },
    {
      "inputs": [
        {
          "internalType": "uint256",
          "name": "",
          "type": "uint256"
        }
      ],
      "name": "assets",
      "outputs": [
        {
          "internalType": "uint256",
          "name": "id",
          "type": "uint256"
        },
        {
          "internalType": "address",
          "name": "owner",
          "type": "address"
        },
        {
          "internalType": "string",
          "name": "ipfsHash",
          "type": "string"
        },
        {
          "internalType": "bytes32",
          "name": "termsHash",
          "type": "bytes32"
        },
        {
          "internalType": "string",
          "name": "slcManifestIPFS",
          "type": "string"
        },
        {
          "internalType": "uint256",
          "name": "timestamp",
          "type": "uint256"
        },
        {
          "internalType": "bool",
          "name": "active",
          "type": "bool"
        }
      ],
      "stateMutability": "view",
      "type": "function"
    },
    {
      "inputs": [
        {
          "internalType": "uint256",
          "name": "_assetId",
          "type": "uint256"
        }
      ],
      "name": "getAssetLicenses",
      "outputs": [
        {
          "components": [
            {
              "internalType": "uint256",
              "name": "assetId",
              "type": "uint256"
            },
            {
              "internalType": "address",
              "name": "licensor",
              "type": "address"
            },
            {
              "internalType": "address",
              "name": "licensee",
              "type": "address"
            },
            {
              "internalType": "bytes32",
              "name": "termsHash",
              "type": "bytes32"
            },
            {
              "internalType": "string",
              "name": "licenseIPFS",
              "type": "string"
            },
            {
              "internalType": "uint256",
              "name": "grantedAt",
              "type": "uint256"
            },
            {
              "internalType": "uint256",
              "name": "expiresAt",
              "type": "uint256"
            },
            {
              "internalType": "bool",
              "name": "revoked",
              "type": "bool"
            }
          ],
          "internalType": "struct IPRightsRegistry.License[]",
          "name": "",
          "type": "tuple[]"
        }
      ],
      "stateMutability": "view",
      "type": "function"
    },
    {
      "inputs": [],
      "name": "getCurrentAssetId",
      "outputs": [
        {
          "internalType": "uint256",
          "name": "",
          "type": "uint256"
        }
      ],
      "stateMutability": "view",
      "type": "function"
    },
    {
      "inputs": [
        {
          "internalType": "address",
          "name": "_user",
          "type": "address"
        }
      ],
      "name": "getUserAssets",
      "outputs": [
        {
          "internalType": "uint256[]",
          "name": "",
          "type": "uint256[]"
        }
      ],
      "stateMutability": "view",
      "type": "function"
    },
    {
      "inputs": [
        {
          "internalType": "uint256",
          "name": "_assetId",
          "type": "uint256"
        },
        {
          "internalType": "address",
          "name": "_grantee",
          "type": "address"
        }
      ],
      "name": "grantAccess",
      "outputs": [],
      "stateMutability": "nonpayable",
      "type": "function"
    },
    {
      "inputs": [
        {
          "internalType": "uint256",
          "name": "_assetId",
          "type": "uint256"
        },
        {
          "internalType": "address",
          "name": "_licensee",
          "type": "address"
        },
        {
          "internalType": "bytes32",
          "name": "_licenseTermsHash",
          "type": "bytes32"
        },
        {
          "internalType": "string",
          "name": "_licenseIPFS",
          "type": "string"
        },
        {
          "internalType": "uint256",
          "name": "_expiresAt",
          "type": "uint256"
        }
      ],
      "name": "grantLicense",
      "outputs": [],
      "stateMutability": "nonpayable",
      "type": "function"
    },
    {
      "inputs": [
        {
          "internalType": "uint256",
          "name": "_assetId",
          "type": "uint256"
        },
        {
          "internalType": "address",
          "name": "_licensee",
          "type": "address"
        }
      ],
      "name": "isLicenseValid",
      "outputs": [
        {
          "internalType": "bool",
          "name": "",
          "type": "bool"
        }
      ],
      "stateMutability": "view",
      "type": "function"
    },
    {
      "inputs": [],
      "name": "owner",
      "outputs": [
        {
          "internalType": "address",
          "name": "",
          "type": "address"
        }
      ],
      "stateMutability": "view",
      "type": "function"
    },
    {
      "inputs": [
        {
          "internalType": "string",
          "name": "_ipfsHash",
          "type": "string"
        },
        {
          "internalType": "bytes32",
          "name": "_termsHash",
          "type": "bytes32"
        },
        {
          "internalType": "string",
          "name": "_slcManifestIPFS",
          "type": "string"
        }
      ],
      "name": "registerAsset",
      "outputs": [
        {
          "internalType": "uint256",
          "name": "",
          "type": "uint256"
        }
      ],
      "stateMutability": "nonpayable",
      "type": "function"
    },
    {
      "inputs": [
        {
          "internalType": "bytes32",
          "name": "",
          "type": "bytes32"
        }
      ],
      "name": "registeredTerms",
      "outputs": [
        {
          "internalType": "bool",
          "name": "",
          "type": "bool"
        }
      ],
      "stateMutability": "view",
      "type": "function"
    },
    {
      "inputs": [],
      "name": "renounceOwnership",
      "outputs": [],
      "stateMutability": "nonpayable",
      "type": "function"
    },
    {
      "inputs": [
        {
          "internalType": "uint256",
          "name": "_assetId",
          "type": "uint256"
        },
        {
          "internalType": "string",
          "name": "_purpose",
          "type": "string"
        }
      ],
      "name": "requestAccess",
      "outputs": [],
      "stateMutability": "nonpayable",
      "type": "function"
    },
    {
      "inputs": [
        {
          "internalType": "uint256",
          "name": "_assetId",
          "type": "uint256"
        },
        {
          "internalType": "address",
          "name": "_licensee",
          "type": "address"
        }
      ],
      "name": "revokeLicense",
      "outputs": [],
      "stateMutability": "nonpayable",
      "type": "function"
    },
    {
      "inputs": [
        {
          "internalType": "uint256",
          "name": "_assetId",
          "type": "uint256"
        },
        {
          "internalType": "address",
          "name": "_newOwner",
          "type": "address"
        }
      ],
      "name": "transferAsset",
      "outputs": [],
      "stateMutability": "nonpayable",
      "type": "function"
    },
    {
      "inputs": [
        {
          "internalType": "address",
          "name": "newOwner",
          "type": "address"
        }
      ],
      "name": "transferOwnership",
      "outputs": [],
      "stateMutability": "nonpayable",
      "type": "function"
    },
    {
      "inputs": [
        {
          "internalType": "address",
          "name": "",
          "type": "address"
        },
        {
          "internalType": "uint256",
          "name": "",
          "type": "uint256"
        }
      ],
      "name": "userAssets",
      "outputs": [
        {
          "internalType": "uint256",
          "name": "",
          "type": "uint256"
        }
      ],
      "stateMutability": "view",
      "type": "function"
    }
  ],
  "bytecode": "0x60806040526001805534801561001457600080fd5b5033600073ffffffffffffffffffffffffffffffffffffffff168173ffffffffffffffffffffffffffffffffffffffff16036100885760006040517f1e4fbdf700000000000000000000000000000000000000000000000000000000815260040161007f91906101a2565b60405180910390fd5b6100978161009d60201b60201c565b506101bd565b60008060009054906101000a900473ffffffffffffffffffffffffffffffffffffffff169050816000806101000a81548173ffffffffffffffffffffffffffffffffffffffff021916908373ffffffffffffffffffffffffffffffffffffffff1602179055508173ffffffffffffffffffffffffffffffffffffffff168173ffffffffffffffffffffffffffffffffffffffff167f8be0079c531659141344cd1fd0a4f28419497f9722a3daafe3b4186f6b6457e060405160405180910390a35050565b600073ffffffffffffffffffffffffffffffffffffffff82169050919050565b600061018c82610161565b9050919050565b61019c81610181565b82525050565b60006020820190506101b76000830184610193565b92915050565b612916806101cc6000396000f3fe608060405234801561001057600080fd5b506004361061010b5760003560e01c8063a1672a67116100a2578063d47c87ac11610071578063d47c87ac146102d7578063dab52a7614610307578063ee6c9db414610323578063f2fde38b14610353578063fa62ee8d1461036f5761010b565b8063a1672a671461021e578063b6c161c71461023a578063cf35bdd01461026a578063d2e36866146102a05761010b565b8063765ff061116100de578063765ff06114610182578063778ee26e146101b25780638da5cb5b146101e257806394c5b2fc146102005761010b565b80634b0964fc1461011057806365dd152c1461012c5780636a8a69aa14610148578063715018a614610178575b600080fd5b61012a60048036038101906101259190611c79565b61038b565b005b61014660048036038101906101419190611d13565b61076a565b005b610162600480360381019061015d9190611d53565b610864565b60405161016f9190611da2565b60405180910390f35b610180610895565b005b61019c60048036038101906101979190611dbd565b6108a9565b6040516101a99190611ea8565b60405180910390f35b6101cc60048036038101906101c79190611eca565b610940565b6040516101d99190611f12565b60405180910390f35b6101ea610960565b6040516101f79190611f3c565b60405180910390f35b610208610989565b6040516102159190611da2565b60405180910390f35b61023860048036038101906102339190611d13565b61099e565b005b610254600480360381019061024f9190611f57565b610bc6565b60405161026191906121b3565b60405180910390f35b610284600480360381019061027f9190611f57565b610dba565b604051610297979695949392919061222e565b60405180910390f35b6102ba60048036038101906102b591906122ab565b610f39565b6040516102ce9897969594939291906122eb565b60405180910390f35b6102f160048036038101906102ec9190612370565b611073565b6040516102fe9190611da2565b60405180910390f35b610321600480360381019061031c9190612405565b611320565b005b61033d60048036038101906103389190611d13565b6113d0565b60405161034a9190611f12565b60405180910390f35b61036d60048036038101906103689190611dbd565b611699565b005b61038960048036038101906103849190611d13565b61171f565b005b3373ffffffffffffffffffffffffffffffffffffffff166002600088815260200190815260200160002060010160009054906101000a900473ffffffffffffffffffffffffffffffffffffffff1673ffffffffffffffffffffffffffffffffffffffff1614610426576040517f7d387f3900000000000000000000000000000000000000000000000000000000815260040160405180910390fd5b6002600087815260200190815260200160002060060160009054906101000a900460ff16610480576040517ff611219f00000000000000000000000000000000000000000000000000000000815260040160405180910390fd5b600073ffffffffffffffffffffffffffffffffffffffff168573ffffffffffffffffffffffffffffffffffffffff16036104e6576040517f7d47093d00000000000000000000000000000000000000000000000000000000815260040160405180910390fd5b42811161051f576040517ffb2a675200000000000000000000000000000000000000000000000000000000815260040160405180910390fd5b60006040518061010001604052808881526020013373ffffffffffffffffffffffffffffffffffffffff1681526020018773ffffffffffffffffffffffffffffffffffffffff16815260200186815260200185858080601f016020809104026020016040519081016040528093929190818152602001838380828437600081840152601f19601f820116905080830192505050505050508152602001428152602001838152602001600015158152509050600460008881526020019081526020016000208190806001815401808255809150506001900390600052602060002090600802016000909190919091506000820151816000015560208201518160010160006101000a81548173ffffffffffffffffffffffffffffffffffffffff021916908373ffffffffffffffffffffffffffffffffffffffff16021790555060408201518160020160006101000a81548173ffffffffffffffffffffffffffffffffffffffff021916908373ffffffffffffffffffffffffffffffffffffffff1602179055506060820151816003015560808201518160040190816106c491906126a0565b5060a0820151816005015560c0820151816006015560e08201518160070160006101000a81548160ff02191690831515021790555050508573ffffffffffffffffffffffffffffffffffffffff163373ffffffffffffffffffffffffffffffffffffffff16887f186aaf569602947d93caa8a726e52288fdec138837c9e5fb53b1d85b70ce80e4886040516107599190612772565b60405180910390a450505050505050565b3373ffffffffffffffffffffffffffffffffffffffff166002600084815260200190815260200160002060010160009054906101000a900473ffffffffffffffffffffffffffffffffffffffff1673ffffffffffffffffffffffffffffffffffffffff1614610805576040517f7d387f3900000000000000000000000000000000000000000000000000000000815260040160405180910390fd5b8073ffffffffffffffffffffffffffffffffffffffff163373ffffffffffffffffffffffffffffffffffffffff16837f97a8264d9d0b9e21370349f9b49be012a5d1e27829879df8ba166dba48f898c660405160405180910390a45050565b6003602052816000526040600020818154811061088057600080fd5b90600052602060002001600091509150505481565b61089d6118e9565b6108a76000611970565b565b6060600360008373ffffffffffffffffffffffffffffffffffffffff1673ffffffffffffffffffffffffffffffffffffffff16815260200190815260200160002080548060200260200160405190810160405280929190818152602001828054801561093457602002820191906000526020600020905b815481526020019060010190808311610920575b50505050509050919050565b60056020528060005260406000206000915054906101000a900460ff1681565b60008060009054906101000a900473ffffffffffffffffffffffffffffffffffffffff16905090565b60006001805461099991906127bc565b905090565b3373ffffffffffffffffffffffffffffffffffffffff166002600084815260200190815260200160002060010160009054906101000a900473ffffffffffffffffffffffffffffffffffffffff1673ffffffffffffffffffffffffffffffffffffffff1614610a39576040517f7d387f3900000000000000000000000000000000000000000000000000000000815260040160405180910390fd5b600060046000848152602001908152602001600020905060008180549050905060005b81811015610bbf578373ffffffffffffffffffffffffffffffffffffffff16838281548110610a8e57610a8d6127f0565b5b906000526020600020906008020160020160009054906101000a900473ffffffffffffffffffffffffffffffffffffffff1673ffffffffffffffffffffffffffffffffffffffff16148015610b125750828181548110610af157610af06127f0565b5b906000526020600020906008020160070160009054906101000a900460ff16155b15610bb4576001838281548110610b2c57610b2b6127f0565b5b906000526020600020906008020160070160006101000a81548160ff0219169083151502179055508373ffffffffffffffffffffffffffffffffffffffff163373ffffffffffffffffffffffffffffffffffffffff16867f58982691f8028698415b80190ad6b11bb594d64a5ad0fe9a1cec01e61c8afcdd60405160405180910390a4610bbf565b806001019050610a5c565b5050505050565b606060046000838152602001908152602001600020805480602002602001604051908101604052809291908181526020016000905b82821015610daf578382906000526020600020906008020160405180610100016040529081600082015481526020016001820160009054906101000a900473ffffffffffffffffffffffffffffffffffffffff1673ffffffffffffffffffffffffffffffffffffffff1673ffffffffffffffffffffffffffffffffffffffff1681526020016002820160009054906101000a900473ffffffffffffffffffffffffffffffffffffffff1673ffffffffffffffffffffffffffffffffffffffff1673ffffffffffffffffffffffffffffffffffffffff16815260200160038201548152602001600482018054610cef906124c3565b80601f0160208091040260200160405190810160405280929190818152602001828054610d1b906124c3565b8015610d685780601f10610d3d57610100808354040283529160200191610d68565b820191906000526020600020905b815481529060010190602001808311610d4b57829003601f168201915b5050505050815260200160058201548152602001600682015481526020016007820160009054906101000a900460ff16151515158152505081526020019060010190610bfb565b505050509050919050565b60026020528060005260406000206000915090508060000154908060010160009054906101000a900473ffffffffffffffffffffffffffffffffffffffff1690806002018054610e09906124c3565b80601f0160208091040260200160405190810160405280929190818152602001828054610e35906124c3565b8015610e825780601f10610e5757610100808354040283529160200191610e82565b820191906000526020600020905b815481529060010190602001808311610e6557829003601f168201915b505050505090806003015490806004018054610e9d906124c3565b80601f0160208091040260200160405190810160405280929190818152602001828054610ec9906124c3565b8015610f165780601f10610eeb57610100808354040283529160200191610f16565b820191906000526020600020905b815481529060010190602001808311610ef957829003601f168201915b5050505050908060050154908060060160009054906101000a900460ff16905087565b60046020528160005260406000208181548110610f5557600080fd5b9060005260206000209060080201600091509150508060000154908060010160009054906101000a900473ffffffffffffffffffffffffffffffffffffffff16908060020160009054906101000a900473ffffffffffffffffffffffffffffffffffffffff1690806003015490806004018054610fd1906124c3565b80601f0160208091040260200160405190810160405280929190818152602001828054610ffd906124c3565b801561104a5780601f1061101f5761010080835404028352916020019161104a565b820191906000526020600020905b81548152906001019060200180831161102d57829003601f168201915b5050505050908060050154908060060154908060070160009054906101000a900460ff16905088565b600080600154905060016000815480929190600101919050555060006040518060e001604052808381526020013373ffffffffffffffffffffffffffffffffffffffff16815260200189898080601f016020809104026020016040519081016040528093929190818152602001838380828437600081840152601f19601f82011690508083019250505050505050815260200187815260200186868080601f016020809104026020016040519081016040528093929190818152602001838380828437600081840152601f19601f82011690508083019250505050505050815260200142815260200160011515815250905080600260008481526020019081526020016000206000820151816000015560208201518160010160006101000a81548173ffffffffffffffffffffffffffffffffffffffff021916908373ffffffffffffffffffffffffffffffffffffffff16021790555060408201518160020190816111df91906126a0565b506060820151816003015560808201518160040190816111ff91906126a0565b5060a0820151816005015560c08201518160060160006101000a81548160ff021916908315150217905550905050600360003373ffffffffffffffffffffffffffffffffffffffff1673ffffffffffffffffffffffffffffffffffffffff16815260200190815260200160002082908060018154018082558091505060019003906000526020600020016000909190919091505560016005600088815260200190815260200160002060006101000a81548160ff0219169083151502179055503373ffffffffffffffffffffffffffffffffffffffff16827ff6ec00b2a9fe63ca5edaca21cc09d8244b42f098733aeb1abc336206de37fbe08a8a8a60405161130a9392919061285b565b60405180910390a3819250505095945050505050565b6002600084815260200190815260200160002060060160009054906101000a900460ff1661137a576040517ff611219f00000000000000000000000000000000000000000000000000000000815260040160405180910390fd5b3373ffffffffffffffffffffffffffffffffffffffff16837fa964b0d5b0ae345368407279f158ce01fbdafd867ce29bc1a4cf30fef68fdd8c84846040516113c392919061288d565b60405180910390a3505050565b60008060046000858152602001908152602001600020805480602002602001604051908101604052809291908181526020016000905b828210156115ba578382906000526020600020906008020160405180610100016040529081600082015481526020016001820160009054906101000a900473ffffffffffffffffffffffffffffffffffffffff1673ffffffffffffffffffffffffffffffffffffffff1673ffffffffffffffffffffffffffffffffffffffff1681526020016002820160009054906101000a900473ffffffffffffffffffffffffffffffffffffffff1673ffffffffffffffffffffffffffffffffffffffff1673ffffffffffffffffffffffffffffffffffffffff168152602001600382015481526020016004820180546114fa906124c3565b80601f0160208091040260200160405190810160405280929190818152602001828054611526906124c3565b80156115735780601f1061154857610100808354040283529160200191611573565b820191906000526020600020905b81548152906001019060200180831161155657829003601f168201915b5050505050815260200160058201548152602001600682015481526020016007820160009054906101000a900460ff16151515158152505081526020019060010190611406565b50505050905060008151905060005b8181101561168b578473ffffffffffffffffffffffffffffffffffffffff168382815181106115fb576115fa6127f0565b5b60200260200101516040015173ffffffffffffffffffffffffffffffffffffffff161480156116465750828181518110611638576116376127f0565b5b602002602001015160e00151155b801561166f575042838281518110611661576116606127f0565b5b602002602001015160c00151115b156116805760019350505050611693565b8060010190506115c9565b506000925050505b92915050565b6116a16118e9565b600073ffffffffffffffffffffffffffffffffffffffff168173ffffffffffffffffffffffffffffffffffffffff16036117135760006040517f1e4fbdf700000000000000000000000000000000000000000000000000000000815260040161170a9190611f3c565b60405180910390fd5b61171c81611970565b50565b3373ffffffffffffffffffffffffffffffffffffffff166002600084815260200190815260200160002060010160009054906101000a900473ffffffffffffffffffffffffffffffffffffffff1673ffffffffffffffffffffffffffffffffffffffff16146117ba576040517f7d387f3900000000000000000000000000000000000000000000000000000000815260040160405180910390fd5b600073ffffffffffffffffffffffffffffffffffffffff168173ffffffffffffffffffffffffffffffffffffffff1603611820576040517f49e27cff00000000000000000000000000000000000000000000000000000000815260040160405180910390fd5b806002600084815260200190815260200160002060010160006101000a81548173ffffffffffffffffffffffffffffffffffffffff021916908373ffffffffffffffffffffffffffffffffffffffff16021790555061187f3383611a34565b600360008273ffffffffffffffffffffffffffffffffffffffff1673ffffffffffffffffffffffffffffffffffffffff1681526020019081526020016000208290806001815401808255809150506001900390600052602060002001600090919091909150555050565b6118f1611b38565b73ffffffffffffffffffffffffffffffffffffffff1661190f610960565b73ffffffffffffffffffffffffffffffffffffffff161461196e57611932611b38565b6040517f118cdaa70000000000000000000000000000000000000000000000000000000081526004016119659190611f3c565b60405180910390fd5b565b60008060009054906101000a900473ffffffffffffffffffffffffffffffffffffffff169050816000806101000a81548173ffffffffffffffffffffffffffffffffffffffff021916908373ffffffffffffffffffffffffffffffffffffffff1602179055508173ffffffffffffffffffffffffffffffffffffffff168173ffffffffffffffffffffffffffffffffffffffff167f8be0079c531659141344cd1fd0a4f28419497f9722a3daafe3b4186f6b6457e060405160405180910390a35050565b6000600360008473ffffffffffffffffffffffffffffffffffffffff1673ffffffffffffffffffffffffffffffffffffffff168152602001908152602001600020905060008180549050905060005b81811015611b315783838281548110611a9f57611a9e6127f0565b5b906000526020600020015403611b265782600183611abd91906127bc565b81548110611ace57611acd6127f0565b5b9060005260206000200154838281548110611aec57611aeb6127f0565b5b906000526020600020018190555082805480611b0b57611b0a6128b1565b5b60019003818190600052602060002001600090559055611b31565b806001019050611a83565b5050505050565b600033905090565b600080fd5b600080fd5b6000819050919050565b611b5d81611b4a565b8114611b6857600080fd5b50565b600081359050611b7a81611b54565b92915050565b600073ffffffffffffffffffffffffffffffffffffffff82169050919050565b6000611bab82611b80565b9050919050565b611bbb81611ba0565b8114611bc657600080fd5b50565b600081359050611bd881611bb2565b92915050565b6000819050919050565b611bf181611bde565b8114611bfc57600080fd5b50565b600081359050611c0e81611be8565b92915050565b600080fd5b600080fd5b600080fd5b60008083601f840112611c3957611c38611c14565b5b8235905067ffffffffffffffff811115611c5657611c55611c19565b5b602083019150836001820283011115611c7257611c71611c1e565b5b9250929050565b60008060008060008060a08789031215611c9657611c95611b40565b5b6000611ca489828a01611b6b565b9650506020611cb589828a01611bc9565b9550506040611cc689828a01611bff565b945050606087013567ffffffffffffffff811115611ce757611ce6611b45565b5b611cf389828a01611c23565b93509350506080611d0689828a01611b6b565b9150509295509295509295565b60008060408385031215611d2a57611d29611b40565b5b6000611d3885828601611b6b565b9250506020611d4985828601611bc9565b9150509250929050565b60008060408385031215611d6a57611d69611b40565b5b6000611d7885828601611bc9565b9250506020611d8985828601611b6b565b9150509250929050565b611d9c81611b4a565b82525050565b6000602082019050611db76000830184611d93565b92915050565b600060208284031215611dd357611dd2611b40565b5b6000611de184828501611bc9565b91505092915050565b600081519050919050565b600082825260208201905092915050565b6000819050602082019050919050565b611e1f81611b4a565b82525050565b6000611e318383611e16565b60208301905092915050565b6000602082019050919050565b6000611e5582611dea565b611e5f8185611df5565b9350611e6a83611e06565b8060005b83811015611e9b578151611e828882611e25565b9750611e8d83611e3d565b925050600181019050611e6e565b5085935050505092915050565b60006020820190508181036000830152611ec28184611e4a565b905092915050565b600060208284031215611ee057611edf611b40565b5b6000611eee84828501611bff565b91505092915050565b60008115159050919050565b611f0c81611ef7565b82525050565b6000602082019050611f276000830184611f03565b92915050565b611f3681611ba0565b82525050565b6000602082019050611f516000830184611f2d565b92915050565b600060208284031215611f6d57611f6c611b40565b5b6000611f7b84828501611b6b565b91505092915050565b600081519050919050565b600082825260208201905092915050565b6000819050602082019050919050565b611fb981611ba0565b82525050565b611fc881611bde565b82525050565b600081519050919050565b600082825260208201905092915050565b60005b83811015612008578082015181840152602081019050611fed565b60008484015250505050565b6000601f19601f8301169050919050565b600061203082611fce565b61203a8185611fd9565b935061204a818560208601611fea565b61205381612014565b840191505092915050565b61206781611ef7565b82525050565b6000610100830160008301516120866000860182611e16565b5060208301516120996020860182611fb0565b5060408301516120ac6040860182611fb0565b5060608301516120bf6060860182611fbf565b50608083015184820360808601526120d78282612025565b91505060a08301516120ec60a0860182611e16565b5060c08301516120ff60c0860182611e16565b5060e083015161211260e086018261205e565b508091505092915050565b6000612129838361206d565b905092915050565b6000602082019050919050565b600061214982611f84565b6121538185611f8f565b93508360208202850161216585611fa0565b8060005b858110156121a15784840389528151612182858261211d565b945061218d83612131565b925060208a01995050600181019050612169565b50829750879550505050505092915050565b600060208201905081810360008301526121cd818461213e565b905092915050565b600082825260208201905092915050565b60006121f182611fce565b6121fb81856121d5565b935061220b818560208601611fea565b61221481612014565b840191505092915050565b61222881611bde565b82525050565b600060e082019050612243600083018a611d93565b6122506020830189611f2d565b818103604083015261226281886121e6565b9050612271606083018761221f565b818103608083015261228381866121e6565b905061229260a0830185611d93565b61229f60c0830184611f03565b98975050505050505050565b600080604083850312156122c2576122c1611b40565b5b60006122d085828601611b6b565b92505060206122e185828601611b6b565b9150509250929050565b600061010082019050612301600083018b611d93565b61230e602083018a611f2d565b61231b6040830189611f2d565b612328606083018861221f565b818103608083015261233a81876121e6565b905061234960a0830186611d93565b61235660c0830185611d93565b61236360e0830184611f03565b9998505050505050505050565b60008060008060006060868803121561238c5761238b611b40565b5b600086013567ffffffffffffffff8111156123aa576123a9611b45565b5b6123b688828901611c23565b955095505060206123c988828901611bff565b935050604086013567ffffffffffffffff8111156123ea576123e9611b45565b5b6123f688828901611c23565b92509250509295509295909350565b60008060006040848603121561241e5761241d611b40565b5b600061242c86828701611b6b565b935050602084013567ffffffffffffffff81111561244d5761244c611b45565b5b61245986828701611c23565b92509250509250925092565b7f4e487b7100000000000000000000000000000000000000000000000000000000600052604160045260246000fd5b7f4e487b7100000000000000000000000000000000000000000000000000000000600052602260045260246000fd5b600060028204905060018216806124db57607f821691505b6020821081036124ee576124ed612494565b5b50919050565b60008190508160005260206000209050919050565b60006020601f8301049050919050565b600082821b905092915050565b6000600883026125567fffffffffffffffffffffffffffffffffffffffffffffffffffffffffffffffff82612519565b6125608683612519565b95508019841693508086168417925050509392505050565b6000819050919050565b600061259d61259861259384611b4a565b612578565b611b4a565b9050919050565b6000819050919050565b6125b783612582565b6125cb6125c3826125a4565b848454612526565b825550505050565b600090565b6125e06125d3565b6125eb8184846125ae565b505050565b5b8181101561260f576126046000826125d8565b6001810190506125f1565b5050565b601f82111561265457612625816124f4565b61262e84612509565b8101602085101561263d578190505b61265161264985612509565b8301826125f0565b50505b505050565b600082821c905092915050565b600061267760001984600802612659565b1980831691505092915050565b60006126908383612666565b9150826002028217905092915050565b6126a982611fce565b67ffffffffffffffff8111156126c2576126c1612465565b5b6126cc82546124c3565b6126d7828285612613565b600060209050601f83116001811461270a57600084156126f8578287015190505b6127028582612684565b86555061276a565b601f198416612718866124f4565b60005b828110156127405784890151825560018201915060208501945060208101905061271b565b8683101561275d5784890151612759601f891682612666565b8355505b6001600288020188555050505b505050505050565b6000602082019050612787600083018461221f565b92915050565b7f4e487b7100000000000000000000000000000000000000000000000000000000600052601160045260246000fd5b60006127c782611b4a565b91506127d283611b4a565b92508282039050818111156127ea576127e961278d565b5b92915050565b7f4e487b7100000000000000000000000000000000000000000000000000000000600052603260045260246000fd5b82818337600083830152505050565b600061283a83856121d5565b935061284783858461281f565b61285083612014565b840190509392505050565b6000604082019050818103600083015261287681858761282e565b9050612885602083018461221f565b949350505050565b600060208201905081810360008301526128a881848661282e565b90509392505050565b7f4e487b7100000000000000000000000000000000000000000000000000000000600052603160045260246000fdfea264697066735822122000224088d6ddfb271aa0f47bda6803d46ad9992da491e73b5f596290ea31d3c564736f6c634300081c0033",
  "linkReferences": {},
  "deployedLinkReferences": {}
}